{
  "_format": "hh-sol-artifact-1",
  "contractName": "MyToken",
  "sourceName": "contracts/MyToken.sol",
  "abi": [
    {
      "inputs": [],
      "stateMutability": "nonpayable",
      "type": "constructor"
    },
    {
      "inputs": [
        {
          "internalType": "address",
          "name": "sender",
          "type": "address"
        },
        {
          "internalType": "uint256",
          "name": "tokenId",
          "type": "uint256"
        },
        {
          "internalType": "address",
          "name": "owner",
          "type": "address"
        }
      ],
      "name": "ERC721IncorrectOwner",
      "type": "error"
    },
    {
      "inputs": [
        {
          "internalType": "address",
          "name": "operator",
          "type": "address"
        },
        {
          "internalType": "uint256",
          "name": "tokenId",
          "type": "uint256"
        }
      ],
      "name": "ERC721InsufficientApproval",
      "type": "error"
    },
    {
      "inputs": [
        {
          "internalType": "address",
          "name": "approver",
          "type": "address"
        }
      ],
      "name": "ERC721InvalidApprover",
      "type": "error"
    },
    {
      "inputs": [
        {
          "internalType": "address",
          "name": "operator",
          "type": "address"
        }
      ],
      "name": "ERC721InvalidOperator",
      "type": "error"
    },
    {
      "inputs": [
        {
          "internalType": "address",
          "name": "owner",
          "type": "address"
        }
      ],
      "name": "ERC721InvalidOwner",
      "type": "error"
    },
    {
      "inputs": [
        {
          "internalType": "address",
          "name": "receiver",
          "type": "address"
        }
      ],
      "name": "ERC721InvalidReceiver",
      "type": "error"
    },
    {
      "inputs": [
        {
          "internalType": "address",
          "name": "sender",
          "type": "address"
        }
      ],
      "name": "ERC721InvalidSender",
      "type": "error"
    },
    {
      "inputs": [
        {
          "internalType": "uint256",
          "name": "tokenId",
          "type": "uint256"
        }
      ],
      "name": "ERC721NonexistentToken",
      "type": "error"
    },
    {
      "inputs": [
        {
          "internalType": "address",
          "name": "owner",
          "type": "address"
        }
      ],
      "name": "OwnableInvalidOwner",
      "type": "error"
    },
    {
      "inputs": [
        {
          "internalType": "address",
          "name": "account",
          "type": "address"
        }
      ],
      "name": "OwnableUnauthorizedAccount",
      "type": "error"
    },
    {
      "anonymous": false,
      "inputs": [
        {
          "indexed": true,
          "internalType": "address",
          "name": "owner",
          "type": "address"
        },
        {
          "indexed": true,
          "internalType": "address",
          "name": "approved",
          "type": "address"
        },
        {
          "indexed": true,
          "internalType": "uint256",
          "name": "tokenId",
          "type": "uint256"
        }
      ],
      "name": "Approval",
      "type": "event"
    },
    {
      "anonymous": false,
      "inputs": [
        {
          "indexed": true,
          "internalType": "address",
          "name": "owner",
          "type": "address"
        },
        {
          "indexed": true,
          "internalType": "address",
          "name": "operator",
          "type": "address"
        },
        {
          "indexed": false,
          "internalType": "bool",
          "name": "approved",
          "type": "bool"
        }
      ],
      "name": "ApprovalForAll",
      "type": "event"
    },
    {
      "anonymous": false,
      "inputs": [
        {
          "indexed": false,
          "internalType": "uint256",
          "name": "_fromTokenId",
          "type": "uint256"
        },
        {
          "indexed": false,
          "internalType": "uint256",
          "name": "_toTokenId",
          "type": "uint256"
        }
      ],
      "name": "BatchMetadataUpdate",
      "type": "event"
    },
    {
      "anonymous": false,
      "inputs": [
        {
          "indexed": false,
          "internalType": "uint256",
          "name": "_tokenId",
          "type": "uint256"
        }
      ],
      "name": "MetadataUpdate",
      "type": "event"
    },
    {
      "anonymous": false,
      "inputs": [
        {
          "indexed": true,
          "internalType": "address",
          "name": "previousOwner",
          "type": "address"
        },
        {
          "indexed": true,
          "internalType": "address",
          "name": "newOwner",
          "type": "address"
        }
      ],
      "name": "OwnershipTransferred",
      "type": "event"
    },
    {
      "anonymous": false,
      "inputs": [
        {
          "indexed": true,
          "internalType": "address",
          "name": "from",
          "type": "address"
        },
        {
          "indexed": true,
          "internalType": "address",
          "name": "to",
          "type": "address"
        },
        {
          "indexed": true,
          "internalType": "uint256",
          "name": "tokenId",
          "type": "uint256"
        }
      ],
      "name": "Transfer",
      "type": "event"
    },
    {
      "inputs": [
        {
          "internalType": "address",
          "name": "to",
          "type": "address"
        },
        {
          "internalType": "uint256",
          "name": "tokenId",
          "type": "uint256"
        }
      ],
      "name": "approve",
      "outputs": [],
      "stateMutability": "nonpayable",
      "type": "function"
    },
    {
      "inputs": [
        {
          "internalType": "address",
          "name": "owner",
          "type": "address"
        }
      ],
      "name": "balanceOf",
      "outputs": [
        {
          "internalType": "uint256",
          "name": "",
          "type": "uint256"
        }
      ],
      "stateMutability": "view",
      "type": "function"
    },
    {
      "inputs": [],
      "name": "baseURI",
      "outputs": [
        {
          "internalType": "string",
          "name": "",
          "type": "string"
        }
      ],
      "stateMutability": "view",
      "type": "function"
    },
    {
      "inputs": [
        {
          "internalType": "uint256",
          "name": "tokenId",
          "type": "uint256"
        }
      ],
      "name": "getApproved",
      "outputs": [
        {
          "internalType": "address",
          "name": "",
          "type": "address"
        }
      ],
      "stateMutability": "view",
      "type": "function"
    },
    {
      "inputs": [],
      "name": "getTokenCounter",
      "outputs": [
        {
          "internalType": "uint256",
          "name": "",
          "type": "uint256"
        }
      ],
      "stateMutability": "view",
      "type": "function"
    },
    {
      "inputs": [
        {
          "internalType": "address",
          "name": "owner",
          "type": "address"
        },
        {
          "internalType": "address",
          "name": "operator",
          "type": "address"
        }
      ],
      "name": "isApprovedForAll",
      "outputs": [
        {
          "internalType": "bool",
          "name": "",
          "type": "bool"
        }
      ],
      "stateMutability": "view",
      "type": "function"
    },
    {
      "inputs": [],
      "name": "mintNft",
      "outputs": [
        {
          "internalType": "uint256",
          "name": "",
          "type": "uint256"
        }
      ],
      "stateMutability": "payable",
      "type": "function"
    },
    {
      "inputs": [],
      "name": "name",
      "outputs": [
        {
          "internalType": "string",
          "name": "",
          "type": "string"
        }
      ],
      "stateMutability": "view",
      "type": "function"
    },
    {
      "inputs": [],
      "name": "owner",
      "outputs": [
        {
          "internalType": "address",
          "name": "",
          "type": "address"
        }
      ],
      "stateMutability": "view",
      "type": "function"
    },
    {
      "inputs": [
        {
          "internalType": "uint256",
          "name": "tokenId",
          "type": "uint256"
        }
      ],
      "name": "ownerOf",
      "outputs": [
        {
          "internalType": "address",
          "name": "",
          "type": "address"
        }
      ],
      "stateMutability": "view",
      "type": "function"
    },
    {
      "inputs": [],
      "name": "renounceOwnership",
      "outputs": [],
      "stateMutability": "nonpayable",
      "type": "function"
    },
    {
      "inputs": [
        {
          "internalType": "address",
          "name": "from",
          "type": "address"
        },
        {
          "internalType": "address",
          "name": "to",
          "type": "address"
        },
        {
          "internalType": "uint256",
          "name": "tokenId",
          "type": "uint256"
        }
      ],
      "name": "safeTransferFrom",
      "outputs": [],
      "stateMutability": "nonpayable",
      "type": "function"
    },
    {
      "inputs": [
        {
          "internalType": "address",
          "name": "from",
          "type": "address"
        },
        {
          "internalType": "address",
          "name": "to",
          "type": "address"
        },
        {
          "internalType": "uint256",
          "name": "tokenId",
          "type": "uint256"
        },
        {
          "internalType": "bytes",
          "name": "data",
          "type": "bytes"
        }
      ],
      "name": "safeTransferFrom",
      "outputs": [],
      "stateMutability": "nonpayable",
      "type": "function"
    },
    {
      "inputs": [
        {
          "internalType": "address",
          "name": "operator",
          "type": "address"
        },
        {
          "internalType": "bool",
          "name": "approved",
          "type": "bool"
        }
      ],
      "name": "setApprovalForAll",
      "outputs": [],
      "stateMutability": "nonpayable",
      "type": "function"
    },
    {
      "inputs": [
        {
          "internalType": "bytes4",
          "name": "interfaceId",
          "type": "bytes4"
        }
      ],
      "name": "supportsInterface",
      "outputs": [
        {
          "internalType": "bool",
          "name": "",
          "type": "bool"
        }
      ],
      "stateMutability": "view",
      "type": "function"
    },
    {
      "inputs": [],
      "name": "symbol",
      "outputs": [
        {
          "internalType": "string",
          "name": "",
          "type": "string"
        }
      ],
      "stateMutability": "view",
      "type": "function"
    },
    {
      "inputs": [
        {
          "internalType": "uint256",
          "name": "tokenId",
          "type": "uint256"
        }
      ],
      "name": "tokenURI",
      "outputs": [
        {
          "internalType": "string",
          "name": "",
          "type": "string"
        }
      ],
      "stateMutability": "view",
      "type": "function"
    },
    {
      "inputs": [],
      "name": "totalSupply",
      "outputs": [
        {
          "internalType": "uint256",
          "name": "",
          "type": "uint256"
        }
      ],
      "stateMutability": "view",
      "type": "function"
    },
    {
      "inputs": [
        {
          "internalType": "address",
          "name": "from",
          "type": "address"
        },
        {
          "internalType": "address",
          "name": "to",
          "type": "address"
        },
        {
          "internalType": "uint256",
          "name": "tokenId",
          "type": "uint256"
        }
      ],
      "name": "transferFrom",
      "outputs": [],
      "stateMutability": "nonpayable",
      "type": "function"
    },
    {
      "inputs": [
        {
          "internalType": "address",
          "name": "newOwner",
          "type": "address"
        }
      ],
      "name": "transferOwnership",
      "outputs": [],
      "stateMutability": "nonpayable",
      "type": "function"
    },
    {
      "inputs": [],
      "name": "withdraw",
      "outputs": [],
      "stateMutability": "payable",
      "type": "function"
    }
  ],
  "bytecode": "0x6080604052738e549687cec0b4e432f6e365491fa766661d62c4600960006101000a81548173ffffffffffffffffffffffffffffffffffffffff021916908373ffffffffffffffffffffffffffffffffffffffff16021790555034801561006557600080fd5b50336040518060400160405280600781526020017f4d79546f6b656e000000000000000000000000000000000000000000000000008152506040518060400160405280600381526020017f4d544b000000000000000000000000000000000000000000000000000000000081525081600090816100e2919061049a565b5080600190816100f2919061049a565b505050600073ffffffffffffffffffffffffffffffffffffffff168173ffffffffffffffffffffffffffffffffffffffff16036101675760006040517f1e4fbdf700000000000000000000000000000000000000000000000000000000815260040161015e91906105ad565b60405180910390fd5b6101768161018460201b60201c565b5060006008819055506105c8565b6000600760009054906101000a900473ffffffffffffffffffffffffffffffffffffffff16905081600760006101000a81548173ffffffffffffffffffffffffffffffffffffffff021916908373ffffffffffffffffffffffffffffffffffffffff1602179055508173ffffffffffffffffffffffffffffffffffffffff168173ffffffffffffffffffffffffffffffffffffffff167f8be0079c531659141344cd1fd0a4f28419497f9722a3daafe3b4186f6b6457e060405160405180910390a35050565b600081519050919050565b7f4e487b7100000000000000000000000000000000000000000000000000000000600052604160045260246000fd5b7f4e487b7100000000000000000000000000000000000000000000000000000000600052602260045260246000fd5b600060028204905060018216806102cb57607f821691505b6020821081036102de576102dd610284565b5b50919050565b60008190508160005260206000209050919050565b60006020601f8301049050919050565b600082821b905092915050565b6000600883026103467fffffffffffffffffffffffffffffffffffffffffffffffffffffffffffffffff82610309565b6103508683610309565b95508019841693508086168417925050509392505050565b6000819050919050565b6000819050919050565b600061039761039261038d84610368565b610372565b610368565b9050919050565b6000819050919050565b6103b18361037c565b6103c56103bd8261039e565b848454610316565b825550505050565b600090565b6103da6103cd565b6103e58184846103a8565b505050565b5b81811015610409576103fe6000826103d2565b6001810190506103eb565b5050565b601f82111561044e5761041f816102e4565b610428846102f9565b81016020851015610437578190505b61044b610443856102f9565b8301826103ea565b50505b505050565b600082821c905092915050565b600061047160001984600802610453565b1980831691505092915050565b600061048a8383610460565b9150826002028217905092915050565b6104a38261024a565b67ffffffffffffffff8111156104bc576104bb610255565b5b6104c682546102b3565b6104d182828561040d565b600060209050601f83116001811461050457600084156104f2578287015190505b6104fc858261047e565b865550610564565b601f198416610512866102e4565b60005b8281101561053a57848901518255600182019150602085019450602081019050610515565b868310156105575784890151610553601f891682610460565b8355505b6001600288020188555050505b505050505050565b600073ffffffffffffffffffffffffffffffffffffffff82169050919050565b60006105978261056c565b9050919050565b6105a78161058c565b82525050565b60006020820190506105c2600083018461059e565b92915050565b612b3c806105d76000396000f3fe60806040526004361061012a5760003560e01c80636e02007d116100ab578063a22cb4651161006f578063a22cb465146103c1578063b88d4fde146103ea578063c2229fea14610413578063c87b56dd14610431578063e985e9c51461046e578063f2fde38b146104ab5761012a565b80636e02007d146102ec57806370a0823114610317578063715018a6146103545780638da5cb5b1461036b57806395d89b41146103965761012a565b806323b872dd116100f257806323b872dd146102285780633ccfd60b1461025157806342842e0e1461025b5780636352211e146102845780636c0360eb146102c15761012a565b806301ffc9a71461012f57806306fdde031461016c578063081812fc14610197578063095ea7b3146101d457806318160ddd146101fd575b600080fd5b34801561013b57600080fd5b5061015660048036038101906101519190611ea5565b6104d4565b6040516101639190611eed565b60405180910390f35b34801561017857600080fd5b50610181610535565b60405161018e9190611f98565b60405180910390f35b3480156101a357600080fd5b506101be60048036038101906101b99190611ff0565b6105c7565b6040516101cb919061205e565b60405180910390f35b3480156101e057600080fd5b506101fb60048036038101906101f691906120a5565b6105e3565b005b34801561020957600080fd5b506102126105f9565b60405161021f91906120f4565b60405180910390f35b34801561023457600080fd5b5061024f600480360381019061024a919061210f565b610603565b005b610259610705565b005b34801561026757600080fd5b50610282600480360381019061027d919061210f565b610775565b005b34801561029057600080fd5b506102ab60048036038101906102a69190611ff0565b610795565b6040516102b8919061205e565b60405180910390f35b3480156102cd57600080fd5b506102d66107a7565b6040516102e39190611f98565b60405180910390f35b3480156102f857600080fd5b506103016107c3565b60405161030e91906120f4565b60405180910390f35b34801561032357600080fd5b5061033e60048036038101906103399190612162565b6107cd565b60405161034b91906120f4565b60405180910390f35b34801561036057600080fd5b50610369610887565b005b34801561037757600080fd5b5061038061089b565b60405161038d919061205e565b60405180910390f35b3480156103a257600080fd5b506103ab6108c5565b6040516103b89190611f98565b60405180910390f35b3480156103cd57600080fd5b506103e860048036038101906103e391906121bb565b610957565b005b3480156103f657600080fd5b50610411600480360381019061040c9190612330565b61096d565b005b61041b61098a565b60405161042891906120f4565b60405180910390f35b34801561043d57600080fd5b5061045860048036038101906104539190611ff0565b610a03565b6040516104659190611f98565b60405180910390f35b34801561047a57600080fd5b50610495600480360381019061049091906123b3565b610a15565b6040516104a29190611eed565b60405180910390f35b3480156104b757600080fd5b506104d260048036038101906104cd9190612162565b610aa9565b005b6000634906490660e01b7bffffffffffffffffffffffffffffffffffffffffffffffffffffffff1916827bffffffffffffffffffffffffffffffffffffffffffffffffffffffff1916148061052e575061052d82610b2f565b5b9050919050565b60606000805461054490612422565b80601f016020809104026020016040519081016040528092919081815260200182805461057090612422565b80156105bd5780601f10610592576101008083540402835291602001916105bd565b820191906000526020600020905b8154815290600101906020018083116105a057829003601f168201915b5050505050905090565b60006105d282610c11565b506105dc82610c99565b9050919050565b6105f582826105f0610cd6565b610cde565b5050565b6000600854905090565b600073ffffffffffffffffffffffffffffffffffffffff168273ffffffffffffffffffffffffffffffffffffffff16036106755760006040517f64a0ae9200000000000000000000000000000000000000000000000000000000815260040161066c919061205e565b60405180910390fd5b60006106898383610684610cd6565b610cf0565b90508373ffffffffffffffffffffffffffffffffffffffff168173ffffffffffffffffffffffffffffffffffffffff16146106ff578382826040517f64283d7b0000000000000000000000000000000000000000000000000000000081526004016106f693929190612453565b60405180910390fd5b50505050565b61070d610f0a565b6000479050600960009054906101000a900473ffffffffffffffffffffffffffffffffffffffff1673ffffffffffffffffffffffffffffffffffffffff166108fc829081150290604051600060405180830381858888f1935050505061077257600080fd5b50565b6107908383836040518060200160405280600081525061096d565b505050565b60006107a082610c11565b9050919050565b6040518060a0016040528060678152602001612aa06067913981565b6000600854905090565b60008073ffffffffffffffffffffffffffffffffffffffff168273ffffffffffffffffffffffffffffffffffffffff16036108405760006040517f89c62b64000000000000000000000000000000000000000000000000000000008152600401610837919061205e565b60405180910390fd5b600360008373ffffffffffffffffffffffffffffffffffffffff1673ffffffffffffffffffffffffffffffffffffffff168152602001908152602001600020549050919050565b61088f610f0a565b6108996000610f91565b565b6000600760009054906101000a900473ffffffffffffffffffffffffffffffffffffffff16905090565b6060600180546108d490612422565b80601f016020809104026020016040519081016040528092919081815260200182805461090090612422565b801561094d5780601f106109225761010080835404028352916020019161094d565b820191906000526020600020905b81548152906001019060200180831161093057829003601f168201915b5050505050905090565b610969610962610cd6565b8383611057565b5050565b610978848484610603565b610984848484846111c6565b50505050565b600080600854905061099c338261137d565b6109e7816040518060a0016040528060678152602001612aa0606791396109c28461139b565b6040516020016109d3929190612512565b604051602081830303815290604052611523565b60016008546109f69190612570565b6008819055508091505090565b6060610a0e8261157f565b9050919050565b6000600560008473ffffffffffffffffffffffffffffffffffffffff1673ffffffffffffffffffffffffffffffffffffffff16815260200190815260200160002060008373ffffffffffffffffffffffffffffffffffffffff1673ffffffffffffffffffffffffffffffffffffffff16815260200190815260200160002060009054906101000a900460ff16905092915050565b610ab1610f0a565b600073ffffffffffffffffffffffffffffffffffffffff168173ffffffffffffffffffffffffffffffffffffffff1603610b235760006040517f1e4fbdf7000000000000000000000000000000000000000000000000000000008152600401610b1a919061205e565b60405180910390fd5b610b2c81610f91565b50565b60007f80ac58cd000000000000000000000000000000000000000000000000000000007bffffffffffffffffffffffffffffffffffffffffffffffffffffffff1916827bffffffffffffffffffffffffffffffffffffffffffffffffffffffff19161480610bfa57507f5b5e139f000000000000000000000000000000000000000000000000000000007bffffffffffffffffffffffffffffffffffffffffffffffffffffffff1916827bffffffffffffffffffffffffffffffffffffffffffffffffffffffff1916145b80610c0a5750610c0982611692565b5b9050919050565b600080610c1d836116fc565b9050600073ffffffffffffffffffffffffffffffffffffffff168173ffffffffffffffffffffffffffffffffffffffff1603610c9057826040517f7e273289000000000000000000000000000000000000000000000000000000008152600401610c8791906120f4565b60405180910390fd5b80915050919050565b60006004600083815260200190815260200160002060009054906101000a900473ffffffffffffffffffffffffffffffffffffffff169050919050565b600033905090565b610ceb8383836001611739565b505050565b600080610cfc846116fc565b9050600073ffffffffffffffffffffffffffffffffffffffff168373ffffffffffffffffffffffffffffffffffffffff1614610d3e57610d3d8184866118fe565b5b600073ffffffffffffffffffffffffffffffffffffffff168173ffffffffffffffffffffffffffffffffffffffff1614610dcf57610d80600085600080611739565b6001600360008373ffffffffffffffffffffffffffffffffffffffff1673ffffffffffffffffffffffffffffffffffffffff168152602001908152602001600020600082825403925050819055505b600073ffffffffffffffffffffffffffffffffffffffff168573ffffffffffffffffffffffffffffffffffffffff1614610e52576001600360008773ffffffffffffffffffffffffffffffffffffffff1673ffffffffffffffffffffffffffffffffffffffff168152602001908152602001600020600082825401925050819055505b846002600086815260200190815260200160002060006101000a81548173ffffffffffffffffffffffffffffffffffffffff021916908373ffffffffffffffffffffffffffffffffffffffff160217905550838573ffffffffffffffffffffffffffffffffffffffff168273ffffffffffffffffffffffffffffffffffffffff167fddf252ad1be2c89b69c2b068fc378daa952ba7f163c4a11628f55a4df523b3ef60405160405180910390a4809150509392505050565b610f12610cd6565b73ffffffffffffffffffffffffffffffffffffffff16610f3061089b565b73ffffffffffffffffffffffffffffffffffffffff1614610f8f57610f53610cd6565b6040517f118cdaa7000000000000000000000000000000000000000000000000000000008152600401610f86919061205e565b60405180910390fd5b565b6000600760009054906101000a900473ffffffffffffffffffffffffffffffffffffffff16905081600760006101000a81548173ffffffffffffffffffffffffffffffffffffffff021916908373ffffffffffffffffffffffffffffffffffffffff1602179055508173ffffffffffffffffffffffffffffffffffffffff168173ffffffffffffffffffffffffffffffffffffffff167f8be0079c531659141344cd1fd0a4f28419497f9722a3daafe3b4186f6b6457e060405160405180910390a35050565b600073ffffffffffffffffffffffffffffffffffffffff168273ffffffffffffffffffffffffffffffffffffffff16036110c857816040517f5b08ba180000000000000000000000000000000000000000000000000000000081526004016110bf919061205e565b60405180910390fd5b80600560008573ffffffffffffffffffffffffffffffffffffffff1673ffffffffffffffffffffffffffffffffffffffff16815260200190815260200160002060008473ffffffffffffffffffffffffffffffffffffffff1673ffffffffffffffffffffffffffffffffffffffff16815260200190815260200160002060006101000a81548160ff0219169083151502179055508173ffffffffffffffffffffffffffffffffffffffff168373ffffffffffffffffffffffffffffffffffffffff167f17307eab39ab6107e8899845ad3d59bd9653f200f220920489ca2b5937696c31836040516111b99190611eed565b60405180910390a3505050565b60008373ffffffffffffffffffffffffffffffffffffffff163b1115611377578273ffffffffffffffffffffffffffffffffffffffff1663150b7a0261120a610cd6565b8685856040518563ffffffff1660e01b815260040161122c94939291906125f9565b6020604051808303816000875af192505050801561126857506040513d601f19601f82011682018060405250810190611265919061265a565b60015b6112ec573d8060008114611298576040519150601f19603f3d011682016040523d82523d6000602084013e61129d565b606091505b5060008151036112e457836040517f64a0ae920000000000000000000000000000000000000000000000000000000081526004016112db919061205e565b60405180910390fd5b805181602001fd5b63150b7a0260e01b7bffffffffffffffffffffffffffffffffffffffffffffffffffffffff1916817bffffffffffffffffffffffffffffffffffffffffffffffffffffffff19161461137557836040517f64a0ae9200000000000000000000000000000000000000000000000000000000815260040161136c919061205e565b60405180910390fd5b505b50505050565b6113978282604051806020016040528060008152506119c2565b5050565b6060600082036113e2576040518060400160405280600181526020017f3000000000000000000000000000000000000000000000000000000000000000815250905061151e565b600082905060005b600082146114145780806113fd90612687565b915050600a8261140d91906126fe565b91506113ea565b60008167ffffffffffffffff8111156114305761142f612205565b5b6040519080825280601f01601f1916602001820160405280156114625781602001600182028036833780820191505090505b50905060008290505b6000861461151657600181611480919061272f565b90506000600a808861149291906126fe565b61149c9190612763565b876114a7919061272f565b60306114b39190612570565b905060008160f81b9050808484815181106114d1576114d06127a5565b5b60200101907effffffffffffffffffffffffffffffffffffffffffffffffffffffffffffff1916908160001a905350600a8861150d91906126fe565b9750505061146b565b819450505050505b919050565b806006600084815260200190815260200160002090816115439190612980565b507ff8e1a15aba9398e019f0b49df1a4fde98ee17ae345cb5f6b5e2c27f5033e8ce78260405161157391906120f4565b60405180910390a15050565b606061158a82610c11565b5060006006600084815260200190815260200160002080546115ab90612422565b80601f01602080910402602001604051908101604052809291908181526020018280546115d790612422565b80156116245780601f106115f957610100808354040283529160200191611624565b820191906000526020600020905b81548152906001019060200180831161160757829003601f168201915b5050505050905060006116356119de565b9050600081510361164a57819250505061168d565b60008251111561167f578082604051602001611667929190612a52565b6040516020818303038152906040529250505061168d565b611688846119f5565b925050505b919050565b60007f01ffc9a7000000000000000000000000000000000000000000000000000000007bffffffffffffffffffffffffffffffffffffffffffffffffffffffff1916827bffffffffffffffffffffffffffffffffffffffffffffffffffffffff1916149050919050565b60006002600083815260200190815260200160002060009054906101000a900473ffffffffffffffffffffffffffffffffffffffff169050919050565b80806117725750600073ffffffffffffffffffffffffffffffffffffffff168273ffffffffffffffffffffffffffffffffffffffff1614155b156118a657600061178284610c11565b9050600073ffffffffffffffffffffffffffffffffffffffff168373ffffffffffffffffffffffffffffffffffffffff16141580156117ed57508273ffffffffffffffffffffffffffffffffffffffff168173ffffffffffffffffffffffffffffffffffffffff1614155b801561180057506117fe8184610a15565b155b1561184257826040517fa9fbf51f000000000000000000000000000000000000000000000000000000008152600401611839919061205e565b60405180910390fd5b81156118a457838573ffffffffffffffffffffffffffffffffffffffff168273ffffffffffffffffffffffffffffffffffffffff167f8c5be1e5ebec7d5bd14f71427d1e84f3dd0314c0f7b2291e5b200ac8c7c3b92560405160405180910390a45b505b836004600085815260200190815260200160002060006101000a81548173ffffffffffffffffffffffffffffffffffffffff021916908373ffffffffffffffffffffffffffffffffffffffff16021790555050505050565b611909838383611a5e565b6119bd57600073ffffffffffffffffffffffffffffffffffffffff168373ffffffffffffffffffffffffffffffffffffffff160361197e57806040517f7e27328900000000000000000000000000000000000000000000000000000000815260040161197591906120f4565b60405180910390fd5b81816040517f177e802f0000000000000000000000000000000000000000000000000000000081526004016119b4929190612a76565b60405180910390fd5b505050565b6119cc8383611b1f565b6119d960008484846111c6565b505050565b606060405180602001604052806000815250905090565b6060611a0082610c11565b506000611a0b6119de565b90506000815111611a2b5760405180602001604052806000815250611a56565b80611a3584611c18565b604051602001611a46929190612a52565b6040516020818303038152906040525b915050919050565b60008073ffffffffffffffffffffffffffffffffffffffff168373ffffffffffffffffffffffffffffffffffffffff1614158015611b1657508273ffffffffffffffffffffffffffffffffffffffff168473ffffffffffffffffffffffffffffffffffffffff161480611ad75750611ad68484610a15565b5b80611b1557508273ffffffffffffffffffffffffffffffffffffffff16611afd83610c99565b73ffffffffffffffffffffffffffffffffffffffff16145b5b90509392505050565b600073ffffffffffffffffffffffffffffffffffffffff168273ffffffffffffffffffffffffffffffffffffffff1603611b915760006040517f64a0ae92000000000000000000000000000000000000000000000000000000008152600401611b88919061205e565b60405180910390fd5b6000611b9f83836000610cf0565b9050600073ffffffffffffffffffffffffffffffffffffffff168173ffffffffffffffffffffffffffffffffffffffff1614611c135760006040517f73c6ac6e000000000000000000000000000000000000000000000000000000008152600401611c0a919061205e565b60405180910390fd5b505050565b606060006001611c2784611ce6565b01905060008167ffffffffffffffff811115611c4657611c45612205565b5b6040519080825280601f01601f191660200182016040528015611c785781602001600182028036833780820191505090505b509050600082602001820190505b600115611cdb578080600190039150507f3031323334353637383961626364656600000000000000000000000000000000600a86061a8153600a8581611ccf57611cce6126cf565b5b04945060008503611c86575b819350505050919050565b600080600090507a184f03e93ff9f4daa797ed6e38ed64bf6a1f0100000000000000008310611d44577a184f03e93ff9f4daa797ed6e38ed64bf6a1f0100000000000000008381611d3a57611d396126cf565b5b0492506040810190505b6d04ee2d6d415b85acef81000000008310611d81576d04ee2d6d415b85acef81000000008381611d7757611d766126cf565b5b0492506020810190505b662386f26fc100008310611db057662386f26fc100008381611da657611da56126cf565b5b0492506010810190505b6305f5e1008310611dd9576305f5e1008381611dcf57611dce6126cf565b5b0492506008810190505b6127108310611dfe576127108381611df457611df36126cf565b5b0492506004810190505b60648310611e215760648381611e1757611e166126cf565b5b0492506002810190505b600a8310611e30576001810190505b80915050919050565b6000604051905090565b600080fd5b600080fd5b60007fffffffff0000000000000000000000000000000000000000000000000000000082169050919050565b611e8281611e4d565b8114611e8d57600080fd5b50565b600081359050611e9f81611e79565b92915050565b600060208284031215611ebb57611eba611e43565b5b6000611ec984828501611e90565b91505092915050565b60008115159050919050565b611ee781611ed2565b82525050565b6000602082019050611f026000830184611ede565b92915050565b600081519050919050565b600082825260208201905092915050565b60005b83811015611f42578082015181840152602081019050611f27565b60008484015250505050565b6000601f19601f8301169050919050565b6000611f6a82611f08565b611f748185611f13565b9350611f84818560208601611f24565b611f8d81611f4e565b840191505092915050565b60006020820190508181036000830152611fb28184611f5f565b905092915050565b6000819050919050565b611fcd81611fba565b8114611fd857600080fd5b50565b600081359050611fea81611fc4565b92915050565b60006020828403121561200657612005611e43565b5b600061201484828501611fdb565b91505092915050565b600073ffffffffffffffffffffffffffffffffffffffff82169050919050565b60006120488261201d565b9050919050565b6120588161203d565b82525050565b6000602082019050612073600083018461204f565b92915050565b6120828161203d565b811461208d57600080fd5b50565b60008135905061209f81612079565b92915050565b600080604083850312156120bc576120bb611e43565b5b60006120ca85828601612090565b92505060206120db85828601611fdb565b9150509250929050565b6120ee81611fba565b82525050565b600060208201905061210960008301846120e5565b92915050565b60008060006060848603121561212857612127611e43565b5b600061213686828701612090565b935050602061214786828701612090565b925050604061215886828701611fdb565b9150509250925092565b60006020828403121561217857612177611e43565b5b600061218684828501612090565b91505092915050565b61219881611ed2565b81146121a357600080fd5b50565b6000813590506121b58161218f565b92915050565b600080604083850312156121d2576121d1611e43565b5b60006121e085828601612090565b92505060206121f1858286016121a6565b9150509250929050565b600080fd5b600080fd5b7f4e487b7100000000000000000000000000000000000000000000000000000000600052604160045260246000fd5b61223d82611f4e565b810181811067ffffffffffffffff8211171561225c5761225b612205565b5b80604052505050565b600061226f611e39565b905061227b8282612234565b919050565b600067ffffffffffffffff82111561229b5761229a612205565b5b6122a482611f4e565b9050602081019050919050565b82818337600083830152505050565b60006122d36122ce84612280565b612265565b9050828152602081018484840111156122ef576122ee612200565b5b6122fa8482856122b1565b509392505050565b600082601f830112612317576123166121fb565b5b81356123278482602086016122c0565b91505092915050565b6000806000806080858703121561234a57612349611e43565b5b600061235887828801612090565b945050602061236987828801612090565b935050604061237a87828801611fdb565b925050606085013567ffffffffffffffff81111561239b5761239a611e48565b5b6123a787828801612302565b91505092959194509250565b600080604083850312156123ca576123c9611e43565b5b60006123d885828601612090565b92505060206123e985828601612090565b9150509250929050565b7f4e487b7100000000000000000000000000000000000000000000000000000000600052602260045260246000fd5b6000600282049050600182168061243a57607f821691505b60208210810361244d5761244c6123f3565b5b50919050565b6000606082019050612468600083018661204f565b61247560208301856120e5565b612482604083018461204f565b949350505050565b600081905092915050565b60006124a082611f08565b6124aa818561248a565b93506124ba818560208601611f24565b80840191505092915050565b7f2e6a736f6e000000000000000000000000000000000000000000000000000000600082015250565b60006124fc60058361248a565b9150612507826124c6565b600582019050919050565b600061251e8285612495565b915061252a8284612495565b9150612535826124ef565b91508190509392505050565b7f4e487b7100000000000000000000000000000000000000000000000000000000600052601160045260246000fd5b600061257b82611fba565b915061258683611fba565b925082820190508082111561259e5761259d612541565b5b92915050565b600081519050919050565b600082825260208201905092915050565b60006125cb826125a4565b6125d581856125af565b93506125e5818560208601611f24565b6125ee81611f4e565b840191505092915050565b600060808201905061260e600083018761204f565b61261b602083018661204f565b61262860408301856120e5565b818103606083015261263a81846125c0565b905095945050505050565b60008151905061265481611e79565b92915050565b6000602082840312156126705761266f611e43565b5b600061267e84828501612645565b91505092915050565b600061269282611fba565b91507fffffffffffffffffffffffffffffffffffffffffffffffffffffffffffffffff82036126c4576126c3612541565b5b600182019050919050565b7f4e487b7100000000000000000000000000000000000000000000000000000000600052601260045260246000fd5b600061270982611fba565b915061271483611fba565b925082612724576127236126cf565b5b828204905092915050565b600061273a82611fba565b915061274583611fba565b925082820390508181111561275d5761275c612541565b5b92915050565b600061276e82611fba565b915061277983611fba565b925082820261278781611fba565b9150828204841483151761279e5761279d612541565b5b5092915050565b7f4e487b7100000000000000000000000000000000000000000000000000000000600052603260045260246000fd5b60008190508160005260206000209050919050565b60006020601f8301049050919050565b600082821b905092915050565b6000600883026128367fffffffffffffffffffffffffffffffffffffffffffffffffffffffffffffffff826127f9565b61284086836127f9565b95508019841693508086168417925050509392505050565b6000819050919050565b600061287d61287861287384611fba565b612858565b611fba565b9050919050565b6000819050919050565b61289783612862565b6128ab6128a382612884565b848454612806565b825550505050565b600090565b6128c06128b3565b6128cb81848461288e565b505050565b5b818110156128ef576128e46000826128b8565b6001810190506128d1565b5050565b601f82111561293457612905816127d4565b61290e846127e9565b8101602085101561291d578190505b612931612929856127e9565b8301826128d0565b50505b505050565b600082821c905092915050565b600061295760001984600802612939565b1980831691505092915050565b60006129708383612946565b9150826002028217905092915050565b61298982611f08565b67ffffffffffffffff8111156129a2576129a1612205565b5b6129ac8254612422565b6129b78282856128f3565b600060209050601f8311600181146129ea57600084156129d8578287015190505b6129e28582612964565b865550612a4a565b601f1984166129f8866127d4565b60005b82811015612a20578489015182556001820191506020850194506020810190506129fb565b86831015612a3d5784890151612a39601f891682612946565b8355505b6001600288020188555050505b505050505050565b6000612a5e8285612495565b9150612a6a8284612495565b91508190509392505050565b6000604082019050612a8b600083018561204f565b612a9860208301846120e5565b939250505056fe68747470733a2f2f616d6574687973742d6272696c6c69616e742d6d6f6f73652d33342e6d7970696e6174612e636c6f75642f697066732f516d645451316374625251566a616a657a5064567252626f736361617a68444d31334644344c7a545070366665592fa264697066735822122066502893c132a9a6e432a8bf4cda298563ac3a68c2cf20ae63b047c7557c32ed64736f6c634300081b0033",
  "linkReferences": {},
  "deployedLinkReferences": {}
}